{
  "abi": [
    {
      "anonymous": false,
      "inputs": [
        {
          "indexed": true,
          "internalType": "address",
          "name": "owner",
          "type": "address"
        },
        {
          "indexed": false,
          "internalType": "uint256",
          "name": "PubKeyX",
          "type": "uint256"
        },
        {
          "indexed": false,
          "internalType": "uint256",
          "name": "PubKeyY",
          "type": "uint256"
        }
      ],
      "name": "NewRegisteredPublicKey",
      "type": "event"
    },
    {
      "inputs": [
        {
          "internalType": "address",
          "name": "user",
          "type": "address"
        }
      ],
      "name": "getRegistredKey",
      "outputs": [
        {
          "components": [
            {
              "internalType": "uint256",
              "name": "X",
              "type": "uint256"
            },
            {
              "internalType": "uint256",
              "name": "Y",
              "type": "uint256"
            }
          ],
          "internalType": "struct PublicKey",
          "name": "",
          "type": "tuple"
        }
      ],
      "stateMutability": "view",
      "type": "function"
    },
    {
      "inputs": [
        {
          "internalType": "uint256",
          "name": "X",
          "type": "uint256"
        },
        {
          "internalType": "uint256",
          "name": "Y",
          "type": "uint256"
        }
      ],
      "name": "registerPublicKey",
      "outputs": [],
      "stateMutability": "nonpayable",
      "type": "function"
    }
  ],
  "bytecode": {
    "object": "0x608060405234801561001057600080fd5b506102ca806100206000396000f3fe608060405234801561001057600080fd5b50600436106100365760003560e01c80636f4940491461003b578063fc2f2e4514610050575b600080fd5b61004e61004936600461021b565b6100c2565b005b6100a361005e36600461023d565b6040805180820190915260008082526020820152506001600160a01b031660009081526020818152604091829020825180840190935280548352600101549082015290565b6040805182518152602092830151928101929092520160405180910390f35b6100cc818361026d565b60000361012e5760405162461bcd60e51b815260206004820152602560248201527f5075626c6963204b65792063616e6e6f7420626520746865206f726967696e206044820152641c1bda5b9d60da1b60648201526084015b60405180910390fd5b336000908152602081815260409182902082518084019093528054808452600190910154918301829052610162919061026d565b156101af5760405162461bcd60e51b815260206004820152601a60248201527f4163636f756e7420616c726561647920726567697374657265640000000000006044820152606401610125565b6040805180820182528481526020808201858152336000818152808452859020935184559051600190930192909255825186815290810185905290917f765ac634377bc40538f0c6b4103b231759e2c9291a5ab1fd199b3b29be9110f4910160405180910390a2505050565b6000806040838503121561022e57600080fd5b50508035926020909101359150565b60006020828403121561024f57600080fd5b81356001600160a01b038116811461026657600080fd5b9392505050565b8082018082111561028e57634e487b7160e01b600052601160045260246000fd5b9291505056fea2646970667358221220d6d006008c74a857f992be8f05b0fb89b5b1b9ebcac8bc75592f741b38f6d91064736f6c63430008120033",
    "linkReferences": {}
  },
  "methodIdentifiers": {
    "getRegistredKey(address)": "fc2f2e45",
    "registerPublicKey(uint256,uint256)": "6f494049"
  },
  "id": 22
}